{
  "_format": "hh-sol-artifact-1",
  "contractName": "SoundexMarketplace",
  "sourceName": "contracts/soundex.sol",
  "abi": [
    {
      "inputs": [],
      "stateMutability": "nonpayable",
      "type": "constructor"
    },
    {
      "anonymous": false,
      "inputs": [
        {
          "indexed": true,
          "internalType": "address",
          "name": "owner",
          "type": "address"
        },
        {
          "indexed": true,
          "internalType": "address",
          "name": "approved",
          "type": "address"
        },
        {
          "indexed": true,
          "internalType": "uint256",
          "name": "tokenId",
          "type": "uint256"
        }
      ],
      "name": "Approval",
      "type": "event"
    },
    {
      "anonymous": false,
      "inputs": [
        {
          "indexed": true,
          "internalType": "address",
          "name": "owner",
          "type": "address"
        },
        {
          "indexed": true,
          "internalType": "address",
          "name": "operator",
          "type": "address"
        },
        {
          "indexed": false,
          "internalType": "bool",
          "name": "approved",
          "type": "bool"
        }
      ],
      "name": "ApprovalForAll",
      "type": "event"
    },
    {
      "anonymous": false,
      "inputs": [
        {
          "indexed": true,
          "internalType": "uint256",
          "name": "tokenId",
          "type": "uint256"
        },
        {
          "indexed": false,
          "internalType": "address",
          "name": "seller",
          "type": "address"
        },
        {
          "indexed": false,
          "internalType": "address",
          "name": "owner",
          "type": "address"
        },
        {
          "indexed": false,
          "internalType": "uint256",
          "name": "price",
          "type": "uint256"
        },
        {
          "indexed": false,
          "internalType": "bool",
          "name": "sold",
          "type": "bool"
        }
      ],
      "name": "MarketItemCreated",
      "type": "event"
    },
    {
      "anonymous": false,
      "inputs": [
        {
          "indexed": true,
          "internalType": "address",
          "name": "from",
          "type": "address"
        },
        {
          "indexed": true,
          "internalType": "address",
          "name": "to",
          "type": "address"
        },
        {
          "indexed": true,
          "internalType": "uint256",
          "name": "tokenId",
          "type": "uint256"
        }
      ],
      "name": "Transfer",
      "type": "event"
    },
    {
      "inputs": [
        {
          "internalType": "address",
          "name": "to",
          "type": "address"
        },
        {
          "internalType": "uint256",
          "name": "tokenId",
          "type": "uint256"
        }
      ],
      "name": "approve",
      "outputs": [],
      "stateMutability": "nonpayable",
      "type": "function"
    },
    {
      "inputs": [
        {
          "internalType": "address",
          "name": "owner",
          "type": "address"
        }
      ],
      "name": "balanceOf",
      "outputs": [
        {
          "internalType": "uint256",
          "name": "",
          "type": "uint256"
        }
      ],
      "stateMutability": "view",
      "type": "function"
    },
    {
      "inputs": [
        {
          "internalType": "uint256",
          "name": "tokenId",
          "type": "uint256"
        }
      ],
      "name": "createMarketSale",
      "outputs": [],
      "stateMutability": "payable",
      "type": "function"
    },
    {
      "inputs": [
        {
          "internalType": "string",
          "name": "tokenURI",
          "type": "string"
        },
        {
          "internalType": "uint256",
          "name": "price",
          "type": "uint256"
        }
      ],
      "name": "createToken",
      "outputs": [
        {
          "internalType": "uint256",
          "name": "",
          "type": "uint256"
        }
      ],
      "stateMutability": "payable",
      "type": "function"
    },
    {
      "inputs": [],
      "name": "fetchItemsListed",
      "outputs": [
        {
          "components": [
            {
              "internalType": "uint256",
              "name": "tokenId",
              "type": "uint256"
            },
            {
              "internalType": "address payable",
              "name": "seller",
              "type": "address"
            },
            {
              "internalType": "address payable",
              "name": "owner",
              "type": "address"
            },
            {
              "internalType": "uint256",
              "name": "price",
              "type": "uint256"
            },
            {
              "internalType": "bool",
              "name": "sold",
              "type": "bool"
            }
          ],
          "internalType": "struct SoundexMarketplace.MarketItem[]",
          "name": "",
          "type": "tuple[]"
        }
      ],
      "stateMutability": "view",
      "type": "function"
    },
    {
      "inputs": [],
      "name": "fetchMarketItems",
      "outputs": [
        {
          "components": [
            {
              "internalType": "uint256",
              "name": "tokenId",
              "type": "uint256"
            },
            {
              "internalType": "address payable",
              "name": "seller",
              "type": "address"
            },
            {
              "internalType": "address payable",
              "name": "owner",
              "type": "address"
            },
            {
              "internalType": "uint256",
              "name": "price",
              "type": "uint256"
            },
            {
              "internalType": "bool",
              "name": "sold",
              "type": "bool"
            }
          ],
          "internalType": "struct SoundexMarketplace.MarketItem[]",
          "name": "",
          "type": "tuple[]"
        }
      ],
      "stateMutability": "view",
      "type": "function"
    },
    {
      "inputs": [],
      "name": "fetchMyNFTs",
      "outputs": [
        {
          "components": [
            {
              "internalType": "uint256",
              "name": "tokenId",
              "type": "uint256"
            },
            {
              "internalType": "address payable",
              "name": "seller",
              "type": "address"
            },
            {
              "internalType": "address payable",
              "name": "owner",
              "type": "address"
            },
            {
              "internalType": "uint256",
              "name": "price",
              "type": "uint256"
            },
            {
              "internalType": "bool",
              "name": "sold",
              "type": "bool"
            }
          ],
          "internalType": "struct SoundexMarketplace.MarketItem[]",
          "name": "",
          "type": "tuple[]"
        }
      ],
      "stateMutability": "view",
      "type": "function"
    },
    {
      "inputs": [
        {
          "internalType": "uint256",
          "name": "tokenId",
          "type": "uint256"
        }
      ],
      "name": "getApproved",
      "outputs": [
        {
          "internalType": "address",
          "name": "",
          "type": "address"
        }
      ],
      "stateMutability": "view",
      "type": "function"
    },
    {
      "inputs": [
        {
          "internalType": "uint256",
          "name": "tokenId",
          "type": "uint256"
        }
      ],
      "name": "getItemAtIndex",
      "outputs": [
        {
          "components": [
            {
              "internalType": "uint256",
              "name": "tokenId",
              "type": "uint256"
            },
            {
              "internalType": "address payable",
              "name": "seller",
              "type": "address"
            },
            {
              "internalType": "address payable",
              "name": "owner",
              "type": "address"
            },
            {
              "internalType": "uint256",
              "name": "price",
              "type": "uint256"
            },
            {
              "internalType": "bool",
              "name": "sold",
              "type": "bool"
            }
          ],
          "internalType": "struct SoundexMarketplace.MarketItem",
          "name": "",
          "type": "tuple"
        }
      ],
      "stateMutability": "view",
      "type": "function"
    },
    {
      "inputs": [],
      "name": "getLatestItemListed",
      "outputs": [
        {
          "components": [
            {
              "internalType": "uint256",
              "name": "tokenId",
              "type": "uint256"
            },
            {
              "internalType": "address payable",
              "name": "seller",
              "type": "address"
            },
            {
              "internalType": "address payable",
              "name": "owner",
              "type": "address"
            },
            {
              "internalType": "uint256",
              "name": "price",
              "type": "uint256"
            },
            {
              "internalType": "bool",
              "name": "sold",
              "type": "bool"
            }
          ],
          "internalType": "struct SoundexMarketplace.MarketItem",
          "name": "",
          "type": "tuple"
        }
      ],
      "stateMutability": "view",
      "type": "function"
    },
    {
      "inputs": [],
      "name": "getListingPrice",
      "outputs": [
        {
          "internalType": "uint256",
          "name": "",
          "type": "uint256"
        }
      ],
      "stateMutability": "view",
      "type": "function"
    },
    {
      "inputs": [
        {
          "internalType": "address",
          "name": "owner",
          "type": "address"
        },
        {
          "internalType": "address",
          "name": "operator",
          "type": "address"
        }
      ],
      "name": "isApprovedForAll",
      "outputs": [
        {
          "internalType": "bool",
          "name": "",
          "type": "bool"
        }
      ],
      "stateMutability": "view",
      "type": "function"
    },
    {
      "inputs": [],
      "name": "name",
      "outputs": [
        {
          "internalType": "string",
          "name": "",
          "type": "string"
        }
      ],
      "stateMutability": "view",
      "type": "function"
    },
    {
      "inputs": [
        {
          "internalType": "uint256",
          "name": "tokenId",
          "type": "uint256"
        }
      ],
      "name": "ownerOf",
      "outputs": [
        {
          "internalType": "address",
          "name": "",
          "type": "address"
        }
      ],
      "stateMutability": "view",
      "type": "function"
    },
    {
      "inputs": [
        {
          "internalType": "uint256",
          "name": "tokenId",
          "type": "uint256"
        },
        {
          "internalType": "uint256",
          "name": "price",
          "type": "uint256"
        }
      ],
      "name": "resellToken",
      "outputs": [],
      "stateMutability": "payable",
      "type": "function"
    },
    {
      "inputs": [
        {
          "internalType": "address",
          "name": "from",
          "type": "address"
        },
        {
          "internalType": "address",
          "name": "to",
          "type": "address"
        },
        {
          "internalType": "uint256",
          "name": "tokenId",
          "type": "uint256"
        }
      ],
      "name": "safeTransferFrom",
      "outputs": [],
      "stateMutability": "nonpayable",
      "type": "function"
    },
    {
      "inputs": [
        {
          "internalType": "address",
          "name": "from",
          "type": "address"
        },
        {
          "internalType": "address",
          "name": "to",
          "type": "address"
        },
        {
          "internalType": "uint256",
          "name": "tokenId",
          "type": "uint256"
        },
        {
          "internalType": "bytes",
          "name": "data",
          "type": "bytes"
        }
      ],
      "name": "safeTransferFrom",
      "outputs": [],
      "stateMutability": "nonpayable",
      "type": "function"
    },
    {
      "inputs": [
        {
          "internalType": "address",
          "name": "operator",
          "type": "address"
        },
        {
          "internalType": "bool",
          "name": "approved",
          "type": "bool"
        }
      ],
      "name": "setApprovalForAll",
      "outputs": [],
      "stateMutability": "nonpayable",
      "type": "function"
    },
    {
      "inputs": [
        {
          "internalType": "bytes4",
          "name": "interfaceId",
          "type": "bytes4"
        }
      ],
      "name": "supportsInterface",
      "outputs": [
        {
          "internalType": "bool",
          "name": "",
          "type": "bool"
        }
      ],
      "stateMutability": "view",
      "type": "function"
    },
    {
      "inputs": [],
      "name": "symbol",
      "outputs": [
        {
          "internalType": "string",
          "name": "",
          "type": "string"
        }
      ],
      "stateMutability": "view",
      "type": "function"
    },
    {
      "inputs": [
        {
          "internalType": "uint256",
          "name": "tokenId",
          "type": "uint256"
        }
      ],
      "name": "tokenURI",
      "outputs": [
        {
          "internalType": "string",
          "name": "",
          "type": "string"
        }
      ],
      "stateMutability": "view",
      "type": "function"
    },
    {
      "inputs": [
        {
          "internalType": "address",
          "name": "from",
          "type": "address"
        },
        {
          "internalType": "address",
          "name": "to",
          "type": "address"
        },
        {
          "internalType": "uint256",
          "name": "tokenId",
          "type": "uint256"
        }
      ],
      "name": "transferFrom",
      "outputs": [],
      "stateMutability": "nonpayable",
      "type": "function"
    },
    {
      "inputs": [
        {
          "internalType": "uint256",
          "name": "_listingPrice",
          "type": "uint256"
        }
      ],
      "name": "updateListingPrice",
      "outputs": [],
      "stateMutability": "payable",
      "type": "function"
    }
  ],
  "bytecode": "0x6080604052650246139ca8006009553480156200001b57600080fd5b506040518060400160405280600e81526020017f536f756e64657820546f6b656e730000000000000000000000000000000000008152506040518060400160405280600381526020017f53445400000000000000000000000000000000000000000000000000000000008152508160009080519060200190620000a092919062000103565b508060019080519060200190620000b992919062000103565b50505033600a60006101000a81548173ffffffffffffffffffffffffffffffffffffffff021916908373ffffffffffffffffffffffffffffffffffffffff16021790555062000218565b8280546200011190620001e2565b90600052602060002090601f01602090048101928262000135576000855562000181565b82601f106200015057805160ff191683800117855562000181565b8280016001018555821562000181579182015b828111156200018057825182559160200191906001019062000163565b5b50905062000190919062000194565b5090565b5b80821115620001af57600081600090555060010162000195565b5090565b7f4e487b7100000000000000000000000000000000000000000000000000000000600052602260045260246000fd5b60006002820490506001821680620001fb57607f821691505b60208210811415620002125762000211620001b3565b5b50919050565b61459580620002286000396000f3fe6080604052600436106101405760003560e01c806370a08231116100b6578063be9af5361161006f578063be9af53614610454578063c87b56dd14610470578063decae445146104ad578063e219fc75146104d8578063e985e9c5146104f4578063f215afe01461053157610140565b806370a082311461034e57806372b3b6201461038b57806395d89b41146103bb578063a22cb465146103e6578063ae677aa31461040f578063b88d4fde1461042b57610140565b806312e855851161010857806312e855851461023e578063202e37401461026957806323b872dd1461029457806342842e0e146102bd57806345f8fa80146102e65780636352211e1461031157610140565b806301ffc9a71461014557806306fdde0314610182578063081812fc146101ad578063095ea7b3146101ea5780630f08efe014610213575b600080fd5b34801561015157600080fd5b5061016c60048036038101906101679190613001565b61056e565b6040516101799190613049565b60405180910390f35b34801561018e57600080fd5b50610197610650565b6040516101a491906130fd565b60405180910390f35b3480156101b957600080fd5b506101d460048036038101906101cf9190613155565b6106e2565b6040516101e191906131c3565b60405180910390f35b3480156101f657600080fd5b50610211600480360381019061020c919061320a565b610728565b005b34801561021f57600080fd5b50610228610840565b60405161023591906133a0565b60405180910390f35b34801561024a57600080fd5b50610253610aa9565b60405161026091906133d1565b60405180910390f35b34801561027557600080fd5b5061027e610ab3565b60405161028b91906133a0565b60405180910390f35b3480156102a057600080fd5b506102bb60048036038101906102b691906133ec565b610da1565b005b3480156102c957600080fd5b506102e460048036038101906102df91906133ec565b610e01565b005b3480156102f257600080fd5b506102fb610e21565b60405161030891906133a0565b60405180910390f35b34801561031d57600080fd5b5061033860048036038101906103339190613155565b61110f565b60405161034591906131c3565b60405180910390f35b34801561035a57600080fd5b506103756004803603810190610370919061343f565b611196565b60405161038291906133d1565b60405180910390f35b6103a560048036038101906103a091906135a1565b61124e565b6040516103b291906133d1565b60405180910390f35b3480156103c757600080fd5b506103d0611290565b6040516103dd91906130fd565b60405180910390f35b3480156103f257600080fd5b5061040d60048036038101906104089190613629565b611322565b005b61042960048036038101906104249190613155565b611338565b005b34801561043757600080fd5b50610452600480360381019061044d919061370a565b6113d2565b005b61046e60048036038101906104699190613155565b611434565b005b34801561047c57600080fd5b5061049760048036038101906104929190613155565b611672565b6040516104a491906130fd565b60405180910390f35b3480156104b957600080fd5b506104c2611785565b6040516104cf91906137f5565b60405180910390f35b6104f260048036038101906104ed9190613810565b61189a565b005b34801561050057600080fd5b5061051b60048036038101906105169190613850565b611a8f565b6040516105289190613049565b60405180910390f35b34801561053d57600080fd5b5061055860048036038101906105539190613155565b611b23565b60405161056591906137f5565b60405180910390f35b60007f80ac58cd000000000000000000000000000000000000000000000000000000007bffffffffffffffffffffffffffffffffffffffffffffffffffffffff1916827bffffffffffffffffffffffffffffffffffffffffffffffffffffffff1916148061063957507f5b5e139f000000000000000000000000000000000000000000000000000000007bffffffffffffffffffffffffffffffffffffffffffffffffffffffff1916827bffffffffffffffffffffffffffffffffffffffffffffffffffffffff1916145b80610649575061064882611c2b565b5b9050919050565b60606000805461065f906138bf565b80601f016020809104026020016040519081016040528092919081815260200182805461068b906138bf565b80156106d85780601f106106ad576101008083540402835291602001916106d8565b820191906000526020600020905b8154815290600101906020018083116106bb57829003601f168201915b5050505050905090565b60006106ed82611c95565b6004600083815260200190815260200160002060009054906101000a900473ffffffffffffffffffffffffffffffffffffffff169050919050565b60006107338261110f565b90508073ffffffffffffffffffffffffffffffffffffffff168373ffffffffffffffffffffffffffffffffffffffff1614156107a4576040517f08c379a000000000000000000000000000000000000000000000000000000000815260040161079b90613963565b60405180910390fd5b8073ffffffffffffffffffffffffffffffffffffffff166107c3611ce0565b73ffffffffffffffffffffffffffffffffffffffff1614806107f257506107f1816107ec611ce0565b611a8f565b5b610831576040517f08c379a0000000000000000000000000000000000000000000000000000000008152600401610828906139f5565b60405180910390fd5b61083b8383611ce8565b505050565b6060600061084e6007611da1565b9050600061085c6008611da1565b6108666007611da1565b6108709190613a44565b90506000808267ffffffffffffffff81111561088f5761088e613476565b5b6040519080825280602002602001820160405280156108c857816020015b6108b5612e95565b8152602001906001900390816108ad5790505b50905060005b84811015610a9e573073ffffffffffffffffffffffffffffffffffffffff16600b60006001846108fe9190613a78565b815260200190815260200160002060020160009054906101000a900473ffffffffffffffffffffffffffffffffffffffff1673ffffffffffffffffffffffffffffffffffffffff161415610a8b57600060018261095b9190613a78565b90506000600b60008381526020019081526020016000209050806040518060a0016040529081600082015481526020016001820160009054906101000a900473ffffffffffffffffffffffffffffffffffffffff1673ffffffffffffffffffffffffffffffffffffffff1673ffffffffffffffffffffffffffffffffffffffff1681526020016002820160009054906101000a900473ffffffffffffffffffffffffffffffffffffffff1673ffffffffffffffffffffffffffffffffffffffff1673ffffffffffffffffffffffffffffffffffffffff168152602001600382015481526020016004820160009054906101000a900460ff161515151581525050848681518110610a6e57610a6d613ace565b5b6020026020010181905250600185610a869190613a78565b945050505b8080610a9690613afd565b9150506108ce565b508094505050505090565b6000600954905090565b60606000610ac16007611da1565b905060008060005b83811015610b6a573373ffffffffffffffffffffffffffffffffffffffff16600b6000600184610af99190613a78565b815260200190815260200160002060020160009054906101000a900473ffffffffffffffffffffffffffffffffffffffff1673ffffffffffffffffffffffffffffffffffffffff161415610b5757600183610b549190613a78565b92505b8080610b6290613afd565b915050610ac9565b5060008267ffffffffffffffff811115610b8757610b86613476565b5b604051908082528060200260200182016040528015610bc057816020015b610bad612e95565b815260200190600190039081610ba55790505b50905060005b84811015610d96573373ffffffffffffffffffffffffffffffffffffffff16600b6000600184610bf69190613a78565b815260200190815260200160002060020160009054906101000a900473ffffffffffffffffffffffffffffffffffffffff1673ffffffffffffffffffffffffffffffffffffffff161415610d83576000600182610c539190613a78565b90506000600b60008381526020019081526020016000209050806040518060a0016040529081600082015481526020016001820160009054906101000a900473ffffffffffffffffffffffffffffffffffffffff1673ffffffffffffffffffffffffffffffffffffffff1673ffffffffffffffffffffffffffffffffffffffff1681526020016002820160009054906101000a900473ffffffffffffffffffffffffffffffffffffffff1673ffffffffffffffffffffffffffffffffffffffff1673ffffffffffffffffffffffffffffffffffffffff168152602001600382015481526020016004820160009054906101000a900460ff161515151581525050848681518110610d6657610d65613ace565b5b6020026020010181905250600185610d7e9190613a78565b945050505b8080610d8e90613afd565b915050610bc6565b508094505050505090565b610db2610dac611ce0565b82611daf565b610df1576040517f08c379a0000000000000000000000000000000000000000000000000000000008152600401610de890613bb8565b60405180910390fd5b610dfc838383611e44565b505050565b610e1c838383604051806020016040528060008152506113d2565b505050565b60606000610e2f6007611da1565b905060008060005b83811015610ed8573373ffffffffffffffffffffffffffffffffffffffff16600b6000600184610e679190613a78565b815260200190815260200160002060010160009054906101000a900473ffffffffffffffffffffffffffffffffffffffff1673ffffffffffffffffffffffffffffffffffffffff161415610ec557600183610ec29190613a78565b92505b8080610ed090613afd565b915050610e37565b5060008267ffffffffffffffff811115610ef557610ef4613476565b5b604051908082528060200260200182016040528015610f2e57816020015b610f1b612e95565b815260200190600190039081610f135790505b50905060005b84811015611104573373ffffffffffffffffffffffffffffffffffffffff16600b6000600184610f649190613a78565b815260200190815260200160002060010160009054906101000a900473ffffffffffffffffffffffffffffffffffffffff1673ffffffffffffffffffffffffffffffffffffffff1614156110f1576000600182610fc19190613a78565b90506000600b60008381526020019081526020016000209050806040518060a0016040529081600082015481526020016001820160009054906101000a900473ffffffffffffffffffffffffffffffffffffffff1673ffffffffffffffffffffffffffffffffffffffff1673ffffffffffffffffffffffffffffffffffffffff1681526020016002820160009054906101000a900473ffffffffffffffffffffffffffffffffffffffff1673ffffffffffffffffffffffffffffffffffffffff1673ffffffffffffffffffffffffffffffffffffffff168152602001600382015481526020016004820160009054906101000a900460ff1615151515815250508486815181106110d4576110d3613ace565b5b60200260200101819052506001856110ec9190613a78565b945050505b80806110fc90613afd565b915050610f34565b508094505050505090565b60008061111b8361213e565b9050600073ffffffffffffffffffffffffffffffffffffffff168173ffffffffffffffffffffffffffffffffffffffff16141561118d576040517f08c379a000000000000000000000000000000000000000000000000000000000815260040161118490613c24565b60405180910390fd5b80915050919050565b60008073ffffffffffffffffffffffffffffffffffffffff168273ffffffffffffffffffffffffffffffffffffffff161415611207576040517f08c379a00000000000000000000000000000000000000000000000000000000081526004016111fe90613cb6565b60405180910390fd5b600360008373ffffffffffffffffffffffffffffffffffffffff1673ffffffffffffffffffffffffffffffffffffffff168152602001908152602001600020549050919050565b600061125a600761217b565b60006112666007611da1565b90506112723382612191565b61127c81856121af565b6112868184612223565b8091505092915050565b60606001805461129f906138bf565b80601f01602080910402602001604051908101604052809291908181526020018280546112cb906138bf565b80156113185780601f106112ed57610100808354040283529160200191611318565b820191906000526020600020905b8154815290600101906020018083116112fb57829003601f168201915b5050505050905090565b61133461132d611ce0565b8383612426565b5050565b3373ffffffffffffffffffffffffffffffffffffffff16600a60009054906101000a900473ffffffffffffffffffffffffffffffffffffffff1673ffffffffffffffffffffffffffffffffffffffff16146113c8576040517f08c379a00000000000000000000000000000000000000000000000000000000081526004016113bf90613d48565b60405180910390fd5b8060098190555050565b6113e36113dd611ce0565b83611daf565b611422576040517f08c379a000000000000000000000000000000000000000000000000000000000815260040161141990613bb8565b60405180910390fd5b61142e84848484612593565b50505050565b6000600b60008381526020019081526020016000206003015490506000600b600084815260200190815260200160002060010160009054906101000a900473ffffffffffffffffffffffffffffffffffffffff1690508134146114cc576040517f08c379a00000000000000000000000000000000000000000000000000000000081526004016114c390613dda565b60405180910390fd5b33600b600085815260200190815260200160002060020160006101000a81548173ffffffffffffffffffffffffffffffffffffffff021916908373ffffffffffffffffffffffffffffffffffffffff1602179055506001600b600085815260200190815260200160002060040160006101000a81548160ff0219169083151502179055506000600b600085815260200190815260200160002060010160006101000a81548173ffffffffffffffffffffffffffffffffffffffff021916908373ffffffffffffffffffffffffffffffffffffffff1602179055506115b0600861217b565b6115bb303385611e44565b600a60009054906101000a900473ffffffffffffffffffffffffffffffffffffffff1673ffffffffffffffffffffffffffffffffffffffff166108fc6009549081150290604051600060405180830381858888f19350505050158015611625573d6000803e3d6000fd5b508073ffffffffffffffffffffffffffffffffffffffff166108fc349081150290604051600060405180830381858888f1935050505015801561166c573d6000803e3d6000fd5b50505050565b606061167d82611c95565b600060066000848152602001908152602001600020805461169d906138bf565b80601f01602080910402602001604051908101604052809291908181526020018280546116c9906138bf565b80156117165780601f106116eb57610100808354040283529160200191611716565b820191906000526020600020905b8154815290600101906020018083116116f957829003601f168201915b5050505050905060006117276125ef565b905060008151141561173d578192505050611780565b60008251111561177257808260405160200161175a929190613e36565b60405160208183030381529060405292505050611780565b61177b84612606565b925050505b919050565b61178d612e95565b60006117996007611da1565b9050600b60008281526020019081526020016000206040518060a0016040529081600082015481526020016001820160009054906101000a900473ffffffffffffffffffffffffffffffffffffffff1673ffffffffffffffffffffffffffffffffffffffff1673ffffffffffffffffffffffffffffffffffffffff1681526020016002820160009054906101000a900473ffffffffffffffffffffffffffffffffffffffff1673ffffffffffffffffffffffffffffffffffffffff1673ffffffffffffffffffffffffffffffffffffffff168152602001600382015481526020016004820160009054906101000a900460ff16151515158152505091505090565b3373ffffffffffffffffffffffffffffffffffffffff16600b600084815260200190815260200160002060020160009054906101000a900473ffffffffffffffffffffffffffffffffffffffff1673ffffffffffffffffffffffffffffffffffffffff161461193e576040517f08c379a000000000000000000000000000000000000000000000000000000000815260040161193590613ecc565b60405180910390fd5b6009543414611982576040517f08c379a000000000000000000000000000000000000000000000000000000000815260040161197990613f5e565b60405180910390fd5b6000600b600084815260200190815260200160002060040160006101000a81548160ff02191690831515021790555080600b60008481526020019081526020016000206003018190555033600b600084815260200190815260200160002060010160006101000a81548173ffffffffffffffffffffffffffffffffffffffff021916908373ffffffffffffffffffffffffffffffffffffffff16021790555030600b600084815260200190815260200160002060020160006101000a81548173ffffffffffffffffffffffffffffffffffffffff021916908373ffffffffffffffffffffffffffffffffffffffff160217905550611a80600861266e565b611a8b333084611e44565b5050565b6000600560008473ffffffffffffffffffffffffffffffffffffffff1673ffffffffffffffffffffffffffffffffffffffff16815260200190815260200160002060008373ffffffffffffffffffffffffffffffffffffffff1673ffffffffffffffffffffffffffffffffffffffff16815260200190815260200160002060009054906101000a900460ff16905092915050565b611b2b612e95565b600b60008381526020019081526020016000206040518060a0016040529081600082015481526020016001820160009054906101000a900473ffffffffffffffffffffffffffffffffffffffff1673ffffffffffffffffffffffffffffffffffffffff1673ffffffffffffffffffffffffffffffffffffffff1681526020016002820160009054906101000a900473ffffffffffffffffffffffffffffffffffffffff1673ffffffffffffffffffffffffffffffffffffffff1673ffffffffffffffffffffffffffffffffffffffff168152602001600382015481526020016004820160009054906101000a900460ff1615151515815250509050919050565b60007f01ffc9a7000000000000000000000000000000000000000000000000000000007bffffffffffffffffffffffffffffffffffffffffffffffffffffffff1916827bffffffffffffffffffffffffffffffffffffffffffffffffffffffff1916149050919050565b611c9e816126ca565b611cdd576040517f08c379a0000000000000000000000000000000000000000000000000000000008152600401611cd490613c24565b60405180910390fd5b50565b600033905090565b816004600083815260200190815260200160002060006101000a81548173ffffffffffffffffffffffffffffffffffffffff021916908373ffffffffffffffffffffffffffffffffffffffff160217905550808273ffffffffffffffffffffffffffffffffffffffff16611d5b8361110f565b73ffffffffffffffffffffffffffffffffffffffff167f8c5be1e5ebec7d5bd14f71427d1e84f3dd0314c0f7b2291e5b200ac8c7c3b92560405160405180910390a45050565b600081600001549050919050565b600080611dbb8361110f565b90508073ffffffffffffffffffffffffffffffffffffffff168473ffffffffffffffffffffffffffffffffffffffff161480611dfd5750611dfc8185611a8f565b5b80611e3b57508373ffffffffffffffffffffffffffffffffffffffff16611e23846106e2565b73ffffffffffffffffffffffffffffffffffffffff16145b91505092915050565b8273ffffffffffffffffffffffffffffffffffffffff16611e648261110f565b73ffffffffffffffffffffffffffffffffffffffff1614611eba576040517f08c379a0000000000000000000000000000000000000000000000000000000008152600401611eb190613ff0565b60405180910390fd5b600073ffffffffffffffffffffffffffffffffffffffff168273ffffffffffffffffffffffffffffffffffffffff161415611f2a576040517f08c379a0000000000000000000000000000000000000000000000000000000008152600401611f2190614082565b60405180910390fd5b611f37838383600161270b565b8273ffffffffffffffffffffffffffffffffffffffff16611f578261110f565b73ffffffffffffffffffffffffffffffffffffffff1614611fad576040517f08c379a0000000000000000000000000000000000000000000000000000000008152600401611fa490613ff0565b60405180910390fd5b6004600082815260200190815260200160002060006101000a81549073ffffffffffffffffffffffffffffffffffffffff02191690556001600360008573ffffffffffffffffffffffffffffffffffffffff1673ffffffffffffffffffffffffffffffffffffffff168152602001908152602001600020600082825403925050819055506001600360008473ffffffffffffffffffffffffffffffffffffffff1673ffffffffffffffffffffffffffffffffffffffff16815260200190815260200160002060008282540192505081905550816002600083815260200190815260200160002060006101000a81548173ffffffffffffffffffffffffffffffffffffffff021916908373ffffffffffffffffffffffffffffffffffffffff160217905550808273ffffffffffffffffffffffffffffffffffffffff168473ffffffffffffffffffffffffffffffffffffffff167fddf252ad1be2c89b69c2b068fc378daa952ba7f163c4a11628f55a4df523b3ef60405160405180910390a46121398383836001612831565b505050565b60006002600083815260200190815260200160002060009054906101000a900473ffffffffffffffffffffffffffffffffffffffff169050919050565b6001816000016000828254019250508190555050565b6121ab828260405180602001604052806000815250612837565b5050565b6121b8826126ca565b6121f7576040517f08c379a00000000000000000000000000000000000000000000000000000000081526004016121ee90614114565b60405180910390fd5b8060066000848152602001908152602001600020908051906020019061221e929190612ef2565b505050565b60008111612266576040517f08c379a000000000000000000000000000000000000000000000000000000000815260040161225d906141a6565b60405180910390fd5b60095434146122aa576040517f08c379a00000000000000000000000000000000000000000000000000000000081526004016122a190613f5e565b60405180910390fd5b6040518060a001604052808381526020013373ffffffffffffffffffffffffffffffffffffffff1681526020013073ffffffffffffffffffffffffffffffffffffffff16815260200182815260200160001515815250600b60008481526020019081526020016000206000820151816000015560208201518160010160006101000a81548173ffffffffffffffffffffffffffffffffffffffff021916908373ffffffffffffffffffffffffffffffffffffffff16021790555060408201518160020160006101000a81548173ffffffffffffffffffffffffffffffffffffffff021916908373ffffffffffffffffffffffffffffffffffffffff1602179055506060820151816003015560808201518160040160006101000a81548160ff0219169083151502179055509050506123e3333084611e44565b817fb640004f1d14576d0c209e240cad0410e0d8c0c33a09375861fbadae2588a98d333084600060405161241a94939291906141c6565b60405180910390a25050565b8173ffffffffffffffffffffffffffffffffffffffff168373ffffffffffffffffffffffffffffffffffffffff161415612495576040517f08c379a000000000000000000000000000000000000000000000000000000000815260040161248c90614257565b60405180910390fd5b80600560008573ffffffffffffffffffffffffffffffffffffffff1673ffffffffffffffffffffffffffffffffffffffff16815260200190815260200160002060008473ffffffffffffffffffffffffffffffffffffffff1673ffffffffffffffffffffffffffffffffffffffff16815260200190815260200160002060006101000a81548160ff0219169083151502179055508173ffffffffffffffffffffffffffffffffffffffff168373ffffffffffffffffffffffffffffffffffffffff167f17307eab39ab6107e8899845ad3d59bd9653f200f220920489ca2b5937696c31836040516125869190613049565b60405180910390a3505050565b61259e848484611e44565b6125aa84848484612892565b6125e9576040517f08c379a00000000000000000000000000000000000000000000000000000000081526004016125e0906142e9565b60405180910390fd5b50505050565b606060405180602001604052806000815250905090565b606061261182611c95565b600061261b6125ef565b9050600081511161263b5760405180602001604052806000815250612666565b8061264584612a29565b604051602001612656929190613e36565b6040516020818303038152906040525b915050919050565b600081600001549050600081116126ba576040517f08c379a00000000000000000000000000000000000000000000000000000000081526004016126b190614355565b60405180910390fd5b6001810382600001819055505050565b60008073ffffffffffffffffffffffffffffffffffffffff166126ec8361213e565b73ffffffffffffffffffffffffffffffffffffffff1614159050919050565b600181111561282b57600073ffffffffffffffffffffffffffffffffffffffff168473ffffffffffffffffffffffffffffffffffffffff161461279f5780600360008673ffffffffffffffffffffffffffffffffffffffff1673ffffffffffffffffffffffffffffffffffffffff16815260200190815260200160002060008282546127979190613a44565b925050819055505b600073ffffffffffffffffffffffffffffffffffffffff168373ffffffffffffffffffffffffffffffffffffffff161461282a5780600360008573ffffffffffffffffffffffffffffffffffffffff1673ffffffffffffffffffffffffffffffffffffffff16815260200190815260200160002060008282546128229190613a78565b925050819055505b5b50505050565b50505050565b6128418383612b01565b61284e6000848484612892565b61288d576040517f08c379a0000000000000000000000000000000000000000000000000000000008152600401612884906142e9565b60405180910390fd5b505050565b60006128b38473ffffffffffffffffffffffffffffffffffffffff16612d1f565b15612a1c578373ffffffffffffffffffffffffffffffffffffffff1663150b7a026128dc611ce0565b8786866040518563ffffffff1660e01b81526004016128fe94939291906143ca565b602060405180830381600087803b15801561291857600080fd5b505af192505050801561294957506040513d601f19601f82011682018060405250810190612946919061442b565b60015b6129cc573d8060008114612979576040519150601f19603f3d011682016040523d82523d6000602084013e61297e565b606091505b506000815114156129c4576040517f08c379a00000000000000000000000000000000000000000000000000000000081526004016129bb906142e9565b60405180910390fd5b805181602001fd5b63150b7a0260e01b7bffffffffffffffffffffffffffffffffffffffffffffffffffffffff1916817bffffffffffffffffffffffffffffffffffffffffffffffffffffffff191614915050612a21565b600190505b949350505050565b606060006001612a3884612d42565b01905060008167ffffffffffffffff811115612a5757612a56613476565b5b6040519080825280601f01601f191660200182016040528015612a895781602001600182028036833780820191505090505b509050600082602001820190505b600115612af6578080600190039150507f3031323334353637383961626364656600000000000000000000000000000000600a86061a8153600a8581612ae057612adf614458565b5b0494506000851415612af157612af6565b612a97565b819350505050919050565b600073ffffffffffffffffffffffffffffffffffffffff168273ffffffffffffffffffffffffffffffffffffffff161415612b71576040517f08c379a0000000000000000000000000000000000000000000000000000000008152600401612b68906144d3565b60405180910390fd5b612b7a816126ca565b15612bba576040517f08c379a0000000000000000000000000000000000000000000000000000000008152600401612bb19061453f565b60405180910390fd5b612bc860008383600161270b565b612bd1816126ca565b15612c11576040517f08c379a0000000000000000000000000000000000000000000000000000000008152600401612c089061453f565b60405180910390fd5b6001600360008473ffffffffffffffffffffffffffffffffffffffff1673ffffffffffffffffffffffffffffffffffffffff16815260200190815260200160002060008282540192505081905550816002600083815260200190815260200160002060006101000a81548173ffffffffffffffffffffffffffffffffffffffff021916908373ffffffffffffffffffffffffffffffffffffffff160217905550808273ffffffffffffffffffffffffffffffffffffffff16600073ffffffffffffffffffffffffffffffffffffffff167fddf252ad1be2c89b69c2b068fc378daa952ba7f163c4a11628f55a4df523b3ef60405160405180910390a4612d1b600083836001612831565b5050565b6000808273ffffffffffffffffffffffffffffffffffffffff163b119050919050565b600080600090507a184f03e93ff9f4daa797ed6e38ed64bf6a1f0100000000000000008310612da0577a184f03e93ff9f4daa797ed6e38ed64bf6a1f0100000000000000008381612d9657612d95614458565b5b0492506040810190505b6d04ee2d6d415b85acef81000000008310612ddd576d04ee2d6d415b85acef81000000008381612dd357612dd2614458565b5b0492506020810190505b662386f26fc100008310612e0c57662386f26fc100008381612e0257612e01614458565b5b0492506010810190505b6305f5e1008310612e35576305f5e1008381612e2b57612e2a614458565b5b0492506008810190505b6127108310612e5a576127108381612e5057612e4f614458565b5b0492506004810190505b60648310612e7d5760648381612e7357612e72614458565b5b0492506002810190505b600a8310612e8c576001810190505b80915050919050565b6040518060a0016040528060008152602001600073ffffffffffffffffffffffffffffffffffffffff168152602001600073ffffffffffffffffffffffffffffffffffffffff168152602001600081526020016000151581525090565b828054612efe906138bf565b90600052602060002090601f016020900481019282612f205760008555612f67565b82601f10612f3957805160ff1916838001178555612f67565b82800160010185558215612f67579182015b82811115612f66578251825591602001919060010190612f4b565b5b509050612f749190612f78565b5090565b5b80821115612f91576000816000905550600101612f79565b5090565b6000604051905090565b600080fd5b600080fd5b60007fffffffff0000000000000000000000000000000000000000000000000000000082169050919050565b612fde81612fa9565b8114612fe957600080fd5b50565b600081359050612ffb81612fd5565b92915050565b60006020828403121561301757613016612f9f565b5b600061302584828501612fec565b91505092915050565b60008115159050919050565b6130438161302e565b82525050565b600060208201905061305e600083018461303a565b92915050565b600081519050919050565b600082825260208201905092915050565b60005b8381101561309e578082015181840152602081019050613083565b838111156130ad576000848401525b50505050565b6000601f19601f8301169050919050565b60006130cf82613064565b6130d9818561306f565b93506130e9818560208601613080565b6130f2816130b3565b840191505092915050565b6000602082019050818103600083015261311781846130c4565b905092915050565b6000819050919050565b6131328161311f565b811461313d57600080fd5b50565b60008135905061314f81613129565b92915050565b60006020828403121561316b5761316a612f9f565b5b600061317984828501613140565b91505092915050565b600073ffffffffffffffffffffffffffffffffffffffff82169050919050565b60006131ad82613182565b9050919050565b6131bd816131a2565b82525050565b60006020820190506131d860008301846131b4565b92915050565b6131e7816131a2565b81146131f257600080fd5b50565b600081359050613204816131de565b92915050565b6000806040838503121561322157613220612f9f565b5b600061322f858286016131f5565b925050602061324085828601613140565b9150509250929050565b600081519050919050565b600082825260208201905092915050565b6000819050602082019050919050565b61327f8161311f565b82525050565b600061329082613182565b9050919050565b6132a081613285565b82525050565b6132af8161302e565b82525050565b60a0820160008201516132cb6000850182613276565b5060208201516132de6020850182613297565b5060408201516132f16040850182613297565b5060608201516133046060850182613276565b50608082015161331760808501826132a6565b50505050565b600061332983836132b5565b60a08301905092915050565b6000602082019050919050565b600061334d8261324a565b6133578185613255565b935061336283613266565b8060005b8381101561339357815161337a888261331d565b975061338583613335565b925050600181019050613366565b5085935050505092915050565b600060208201905081810360008301526133ba8184613342565b905092915050565b6133cb8161311f565b82525050565b60006020820190506133e660008301846133c2565b92915050565b60008060006060848603121561340557613404612f9f565b5b6000613413868287016131f5565b9350506020613424868287016131f5565b925050604061343586828701613140565b9150509250925092565b60006020828403121561345557613454612f9f565b5b6000613463848285016131f5565b91505092915050565b600080fd5b600080fd5b7f4e487b7100000000000000000000000000000000000000000000000000000000600052604160045260246000fd5b6134ae826130b3565b810181811067ffffffffffffffff821117156134cd576134cc613476565b5b80604052505050565b60006134e0612f95565b90506134ec82826134a5565b919050565b600067ffffffffffffffff82111561350c5761350b613476565b5b613515826130b3565b9050602081019050919050565b82818337600083830152505050565b600061354461353f846134f1565b6134d6565b9050828152602081018484840111156135605761355f613471565b5b61356b848285613522565b509392505050565b600082601f8301126135885761358761346c565b5b8135613598848260208601613531565b91505092915050565b600080604083850312156135b8576135b7612f9f565b5b600083013567ffffffffffffffff8111156135d6576135d5612fa4565b5b6135e285828601613573565b92505060206135f385828601613140565b9150509250929050565b6136068161302e565b811461361157600080fd5b50565b600081359050613623816135fd565b92915050565b600080604083850312156136405761363f612f9f565b5b600061364e858286016131f5565b925050602061365f85828601613614565b9150509250929050565b600067ffffffffffffffff82111561368457613683613476565b5b61368d826130b3565b9050602081019050919050565b60006136ad6136a884613669565b6134d6565b9050828152602081018484840111156136c9576136c8613471565b5b6136d4848285613522565b509392505050565b600082601f8301126136f1576136f061346c565b5b813561370184826020860161369a565b91505092915050565b6000806000806080858703121561372457613723612f9f565b5b6000613732878288016131f5565b9450506020613743878288016131f5565b935050604061375487828801613140565b925050606085013567ffffffffffffffff81111561377557613774612fa4565b5b613781878288016136dc565b91505092959194509250565b60a0820160008201516137a36000850182613276565b5060208201516137b66020850182613297565b5060408201516137c96040850182613297565b5060608201516137dc6060850182613276565b5060808201516137ef60808501826132a6565b50505050565b600060a08201905061380a600083018461378d565b92915050565b6000806040838503121561382757613826612f9f565b5b600061383585828601613140565b925050602061384685828601613140565b9150509250929050565b6000806040838503121561386757613866612f9f565b5b6000613875858286016131f5565b9250506020613886858286016131f5565b9150509250929050565b7f4e487b7100000000000000000000000000000000000000000000000000000000600052602260045260246000fd5b600060028204905060018216806138d757607f821691505b602082108114156138eb576138ea613890565b5b50919050565b7f4552433732313a20617070726f76616c20746f2063757272656e74206f776e6560008201527f7200000000000000000000000000000000000000000000000000000000000000602082015250565b600061394d60218361306f565b9150613958826138f1565b604082019050919050565b6000602082019050818103600083015261397c81613940565b9050919050565b7f4552433732313a20617070726f76652063616c6c6572206973206e6f7420746f60008201527f6b656e206f776e6572206f7220617070726f76656420666f7220616c6c000000602082015250565b60006139df603d8361306f565b91506139ea82613983565b604082019050919050565b60006020820190508181036000830152613a0e816139d2565b9050919050565b7f4e487b7100000000000000000000000000000000000000000000000000000000600052601160045260246000fd5b6000613a4f8261311f565b9150613a5a8361311f565b925082821015613a6d57613a6c613a15565b5b828203905092915050565b6000613a838261311f565b9150613a8e8361311f565b9250827fffffffffffffffffffffffffffffffffffffffffffffffffffffffffffffffff03821115613ac357613ac2613a15565b5b828201905092915050565b7f4e487b7100000000000000000000000000000000000000000000000000000000600052603260045260246000fd5b6000613b088261311f565b91507fffffffffffffffffffffffffffffffffffffffffffffffffffffffffffffffff821415613b3b57613b3a613a15565b5b600182019050919050565b7f4552433732313a2063616c6c6572206973206e6f7420746f6b656e206f776e6560008201527f72206f7220617070726f76656400000000000000000000000000000000000000602082015250565b6000613ba2602d8361306f565b9150613bad82613b46565b604082019050919050565b60006020820190508181036000830152613bd181613b95565b9050919050565b7f4552433732313a20696e76616c696420746f6b656e2049440000000000000000600082015250565b6000613c0e60188361306f565b9150613c1982613bd8565b602082019050919050565b60006020820190508181036000830152613c3d81613c01565b9050919050565b7f4552433732313a2061646472657373207a65726f206973206e6f74206120766160008201527f6c6964206f776e65720000000000000000000000000000000000000000000000602082015250565b6000613ca060298361306f565b9150613cab82613c44565b604082019050919050565b60006020820190508181036000830152613ccf81613c93565b9050919050565b7f4f6e6c79206d61726b6574706c616365206f776e65722063616e20757064617460008201527f65206c697374696e672070726963652e00000000000000000000000000000000602082015250565b6000613d3260308361306f565b9150613d3d82613cd6565b604082019050919050565b60006020820190508181036000830152613d6181613d25565b9050919050565b7f506c65617365207375626d6974207468652061736b696e67207072696365206960008201527f6e206f7264657220746f20636f6d706c65746520746865207075726368617365602082015250565b6000613dc460408361306f565b9150613dcf82613d68565b604082019050919050565b60006020820190508181036000830152613df381613db7565b9050919050565b600081905092915050565b6000613e1082613064565b613e1a8185613dfa565b9350613e2a818560208601613080565b80840191505092915050565b6000613e428285613e05565b9150613e4e8284613e05565b91508190509392505050565b7f4f6e6c79206974656d206f776e65722063616e20706572666f726d207468697360008201527f206f7065726174696f6e00000000000000000000000000000000000000000000602082015250565b6000613eb6602a8361306f565b9150613ec182613e5a565b604082019050919050565b60006020820190508181036000830152613ee581613ea9565b9050919050565b7f5072696365206d75737420626520657175616c20746f206c697374696e67207060008201527f7269636500000000000000000000000000000000000000000000000000000000602082015250565b6000613f4860248361306f565b9150613f5382613eec565b604082019050919050565b60006020820190508181036000830152613f7781613f3b565b9050919050565b7f4552433732313a207472616e736665722066726f6d20696e636f72726563742060008201527f6f776e6572000000000000000000000000000000000000000000000000000000602082015250565b6000613fda60258361306f565b9150613fe582613f7e565b604082019050919050565b6000602082019050818103600083015261400981613fcd565b9050919050565b7f4552433732313a207472616e7366657220746f20746865207a65726f2061646460008201527f7265737300000000000000000000000000000000000000000000000000000000602082015250565b600061406c60248361306f565b915061407782614010565b604082019050919050565b6000602082019050818103600083015261409b8161405f565b9050919050565b7f45524337323155524953746f726167653a2055524920736574206f66206e6f6e60008201527f6578697374656e7420746f6b656e000000000000000000000000000000000000602082015250565b60006140fe602e8361306f565b9150614109826140a2565b604082019050919050565b6000602082019050818103600083015261412d816140f1565b9050919050565b7f5072696365206f66206120746f6b656e206d757374206265206174206c65617360008201527f7420312077656900000000000000000000000000000000000000000000000000602082015250565b600061419060278361306f565b915061419b82614134565b604082019050919050565b600060208201905081810360008301526141bf81614183565b9050919050565b60006080820190506141db60008301876131b4565b6141e860208301866131b4565b6141f560408301856133c2565b614202606083018461303a565b95945050505050565b7f4552433732313a20617070726f766520746f2063616c6c657200000000000000600082015250565b600061424160198361306f565b915061424c8261420b565b602082019050919050565b6000602082019050818103600083015261427081614234565b9050919050565b7f4552433732313a207472616e7366657220746f206e6f6e20455243373231526560008201527f63656976657220696d706c656d656e7465720000000000000000000000000000602082015250565b60006142d360328361306f565b91506142de82614277565b604082019050919050565b60006020820190508181036000830152614302816142c6565b9050919050565b7f436f756e7465723a2064656372656d656e74206f766572666c6f770000000000600082015250565b600061433f601b8361306f565b915061434a82614309565b602082019050919050565b6000602082019050818103600083015261436e81614332565b9050919050565b600081519050919050565b600082825260208201905092915050565b600061439c82614375565b6143a68185614380565b93506143b6818560208601613080565b6143bf816130b3565b840191505092915050565b60006080820190506143df60008301876131b4565b6143ec60208301866131b4565b6143f960408301856133c2565b818103606083015261440b8184614391565b905095945050505050565b60008151905061442581612fd5565b92915050565b60006020828403121561444157614440612f9f565b5b600061444f84828501614416565b91505092915050565b7f4e487b7100000000000000000000000000000000000000000000000000000000600052601260045260246000fd5b7f4552433732313a206d696e7420746f20746865207a65726f2061646472657373600082015250565b60006144bd60208361306f565b91506144c882614487565b602082019050919050565b600060208201905081810360008301526144ec816144b0565b9050919050565b7f4552433732313a20746f6b656e20616c7265616479206d696e74656400000000600082015250565b6000614529601c8361306f565b9150614534826144f3565b602082019050919050565b600060208201905081810360008301526145588161451c565b905091905056fea26469706673582212203062055bca9e4982baa44e95d304e635c615c5794f1a1d8d74e9ec1f63cf51d764736f6c63430008090033",
  "linkReferences": {},
  "deployedLinkReferences": {}
}